:020000040000FA
:040000001AEF17F0EC
:102E1800720ED36E140ED26E000E9B6E1200BB683B
:102E2800000EBC6E9E92050EBA6E12005F6A5E6A54
:102E3800000EF86E0001B4EF19F01C0E0F01576F69
:102E4800020E586F000E596FFC0E481712000C0E38
:102E58000F01546F000E556F000E566FF30E481792
:102E68001200000EC16E050EC06E000EC36E000E7D
:102E7800C46E010EC26E12004DEC17F00CEC17F088
:102E880021EC17F02BEC17F013EC17F035EC17F0DA
:102E98001200000E896E000E8A6E000E8B6EEF0E09
:102EA800926E000E936E9468FC0E0F013A6F000E3E
:102EB800396F2F0E386F000E616EF18E120001C04F
:102EC80003F002C004F0D89004320332D8900432E0
:102ED800033203500F01586F01C003F0030E0316AD
:102EE800033AF00E03165751CF0B0310576F120019
:102EF80001C003F002C004F0D89004320332D89025
:102F08000432033203500F01556F01C003F0030E62
:102F18000316033AF00E03165451CF0B0310546FE7
:102F28001200056E05C003F003460346C25003189D
:102F3800830B0318C26EC280C282C2B2A6EF17F01A
:102F4800A8EF17F0A1EF17F0C450046E036AC3503E
:102F58000324016E000E0420026E1200000E411AB6
:102F6800000E421A000E431A800E441A3DC02DF07E
:102F78003EC02EF03FC02FF040C030F041C031F0CD
:102F880042C032F043C033F044C034F0A0EC1DF02E
:102F98002DC03DF02EC03EF02FC03FF030C040F0B5
:102FA8001200000E14141C6E000E15141D6E800EF7
:102FB80016141E6E7F0E17141F6E1C501D101E1047
:102FC8001F10D8A4EAEF17F0ECEF17F0F4EF17F0A2
:102FD800000E146E000E156E000E166E000E176EA3
:102FE800000E18141C6E000E19141D6E800E1A1493
:102FF8001E6E7F0E1B141F6E1C501D101E101F10FE
:10300800D8A409EF18F00BEF18F013EF18F0000E22
:10301800186E000E196E000E1A6E000E1B6E17AE9B
:1030280018EF18F01AEF18F023EF18F0146C151EAB
:10303800D8B0152A161ED8B0162A800E17561BAE01
:1030480028EF18F02AEF18F033EF18F0186C191E53
:10305800D8B0192A1A1ED8B01A2A800E1B56000E8C
:10306800141A000E151A000E161A800E171A000EE2
:10307800181A000E191A000E1A1A800E1B1A185068
:10308800145C195015581A5016581B501758D8B0B8
:1030980050EF18F052EF18F055EF18F0D89056EF9F
:1030A80018F0D8801200473448344E6E4E50D8A4D9
:1030B80060EF18F062EF18F06CEF18F0000E456E34
:1030C800000E466E000E476E000E486ED9EF18F0DF
:1030D80045C049F046C04AF047C04BF048C04CF0E4
:1030E800200E7CEF18F0D8904C324B324A324932DD
:1030F800E82E77EF18F049504D6E478EFF0E4516B3
:10310800FF0E4616FF0E4716000E4816960E4E5E28
:103118004EBE93EF18F091EF18F0A9EF18F04E504B
:10312800800A970FD8B09BEF18F09DEF18F09FEF2B
:1031380018F062EF18F0D8904832473246324532DC
:103148004E3E9FEF18F0C1EF18F01F0E4E64AFEF20
:1031580018F0B1EF18F0B9EF18F062EF18F0D89046
:1031680045364636473648364E064E50D8A4BFEF49
:1031780018F0C1EF18F0B3EF18F04D50D8B4C7EFFE
:1031880018F0C9EF18F0D1EF18F0481E471E461E78
:10319800456C000E46224722482245C045F046C0ED
:1031A80046F047C047F048C048F012000E6E0E5077
:1031B800D8B4E1EF18F0E3EF18F005EF19F009BE05
:1031C800EAEF18F0E8EF18F005EF19F006C00AF07A
:1031D80007C00BF008C00CF009C00DF00A1E0B1E4A
:1031E8000C1E0D1E0A2A000E0B220C220D220AC0EC
:1031F80010F00BC011F00CC012F00DC013F00DEF61
:1032080019F006C010F007C011F008C012F009C08C
:1032180013F00650071008100910D8A416EF19F07B
:1032280018EF19F022EF19F0000E066E000E076E67
:10323800000E086E000E096EB3EF19F0960E0F6EB1
:103248002CEF19F00F2AD8901332123211321032A3
:10325800000E10140A6E000E11140B6E000E1214DC
:103268000C6EFE0E13140D6E0A500B100C100D1080
:10327800D8A441EF19F043EF19F026EF19F051EFF8
:1032880019F00F2A010E1026000E11221222132205
:10329800D8901332123211321032000E10140A6E06
:1032A800000E11140B6E000E12140C6EFF0E131488
:1032B8000D6E0A500B100C100D10D8A466EF19F003
:1032C80068EF19F045EF19F070EF19F00F06D89074
:1032D800103611361236133612BE75EF19F077EF25
:1032E80019F07FEF19F0020E0F607DEF19F07FEFF4
:1032F80019F06AEF19F00FB084EF19F086EF19F0A2
:1033080087EF19F0129ED8900F320FC00AF00B6A9F
:103318000C6A0D6A0AC00DF00C6A0B6A0A6A0A5038
:1033280010120B5011120C5012120D5013120E5095
:10333800D8B4A1EF19F0A3EF19F0ABEF19F009BE5B
:10334800AAEF19F0A8EF19F0ABEF19F0138E10C01F
:1033580006F011C007F012C008F013C009F01200FF
:1033680040EC17F0030E5D6E5C68360E546E940EDA
:10337800556E8F0E566E400E576ECD0E186ECC0ED3
:10338800196ECC0E1A6E3D0E1B6E000E95EC17F0E2
:10339800060E4F6ED890023201324F2ECEEF19F042
:1033A80001C006F002C007F0086A096A000EDAECEC
:1033B80018F006C014F007C015F008C016F009C0D0
:1033C80017F08BEC1BF014C031F015C032F016C0AA
:1033D80033F017C034F0660E186E660E196E660E5E
:1033E8001A6E3F0E1B6E5CC006F05DC007F0086ADF
:1033F800096A000EDAEC18F006C014F007C015F0E0
:1034080008C016F009C017F08BEC1BF014C02DF0A3
:1034180015C02EF016C02FF017C030F0A0EC1DF02C
:103428002DC045F02EC046F02FC047F030C048F000
:1034380057EC18F045C05CF046C05DF0000E146E05
:10344800C00E156E460E166E440E176E5CC006F062
:103458005DC007F0086A096A000EDAEC18F006C0C9
:1034680018F007C019F008C01AF009C01BF0D5EC15
:1034780017F0D8B042EF1AF044EF1AF0C8EF1AF07C
:1034880054C018F055C019F056C01AF057C01BF0B8
:10349800000E316EC00E326E460E336EC40E346EA0
:1034A8005CC006F05DC007F0086A096A000EDAEC35
:1034B80018F006C02DF007C02EF008C02FF009C084
:1034C80030F0A0EC1DF02DC014F02EC015F02FC068
:1034D80016F030C017F08BEC1BF014C045F015C087
:1034E80046F016C047F017C048F057EC18F045C032
:1034F80050F046C051F054C018F055C019F056C0ED
:103508001AF057C01BF05CC006F05DC007F0086AEF
:10351800096A000EDAEC18F006C041F007C042F064
:1035280008C043F009C044F0000E3D6EC00E3E6E68
:103538007F0E3F6E440E406EB2EC17F03DC014F0A3
:103548003EC015F03FC016F040C017F08BEC1BF0E2
:1035580014C045F015C046F016C047F017C048F033
:1035680057EC18F045C052F046C053F050C001F077
:1035780051C002F063EC17F052C001F053C002F0E2
:103588007CEC17F0C1EF19F0000E026E000E016E10
:1035980063EC17F0000E026E000E016E7CEC17F063
:1035A8005CC058F05DC059F058C006F059C007F02B
:1035B800086A096A000EDAEC18F006C014F007C0B1
:1035C80015F008C016F009C017F0000E186EC00EEE
:1035D800196E460E1A6E440E1B6ED5EC17F0D8A065
:1035E800F8EF1AF0FAEF1AF0FCEF1AF028EF1BF0D8
:1035F800060E4F6E300EE82EFED74F2EFCD700D0A9
:10360800584A592A58C006F059C007F0086A096A8A
:10361800000EDAEC18F006C014F007C015F008C068
:1036280016F009C017F0000E186EC00E196E460E7F
:103638001A6E440E1B6ED5EC17F0D8A026EF1BF0BF
:1036480028EF1BF0FCEF1AF0030E026E01687CEC09
:1036580017F05CC05AF05DC05BF05AC006F05BC062
:1036680007F0086A096A000EDAEC18F006C014F0D0
:1036780007C015F008C016F009C017F0000E186E44
:10368800C00E196E460E1A6E440E1B6ED5EC17F05E
:10369800D8A051EF1BF053EF1BF055EF1BF081EF53
:1036A8001BF0060E4F6E300EE82EFED74F2EFCD7BD
:1036B80000D05A4A5B2A5AC006F05BC007F0086A75
:1036C800096A000EDAEC18F006C014F007C015F00D
:1036D80008C016F009C017F0000E186EC00E196E5B
:1036E800460E1A6E440E1B6ED5EC17F0D8A07FEF6D
:1036F8001BF081EF1BF055EF1BF0000E026E000E61
:10370800016E7CEC17F0C1EF19F000EF00F01750D4
:10371800800B206E17501724266E16AE96EF1BF0FE
:1037280098EF1BF099EF1BF026802650D8B49FEF36
:103738001BF0A1EF1BF0B4EF1BF02628D8A4A7EFCD
:103748001BF0A9EF1BF0B1EF1BF0000E146E000E7A
:10375800156E000E166E000E176E168EBCEF1BF05F
:10376800000E146E000E156E000E166E000E176E0B
:103778001B50800B201A1B501B24256E1AAEC7EF56
:103788001BF0C9EF1BF0CAEF1BF025802550D8B4F9
:10379800D0EF1BF0D2EF1BF0E5EF1BF02528D8A4E3
:1037A800D8EF1BF0DAEF1BF0E2EF1BF0000E186EFB
:1037B800000E196E000E1A6E000E1B6E1A8EEDEFBB
:1037C8001BF0000E186E000E196E000E1A6E000E19
:1037D8001B6E2550D8B4F3EF1BF0F5EF1BF0FDEF8F
:1037E8001BF02650D8A4FBEF1BF0FDEF1BF007EFF2
:1037F8001CF0000E146E000E156E000E166E000EF4
:10380800176E9FEF1DF01A501402F3CF2BF0F4CF70
:103818002CF02B50216E226A236A246A2C50276EC2
:10382800286A296A2A6A19501502F3CF2BF0F4CFB7
:103838002CF02B502126000E2222232224222C5049
:103848002726000E282229222A2218501602F3CFF2
:103858002BF0F4CF2CF02B502126000E222223220D
:1038680024222C502726000E282229222A2223C06F
:1038780024F022C023F021C022F0216A185015023A
:10388800F3CF2BF0F4CF2CF02B5021262C502222F2
:10389800000E2322000E242219501402F3CF2BF01D
:1038A800F4CF2CF02B5021262C502222000E23225C
:1038B800000E242223C024F022C023F021C022F0CD
:1038C800216A18501402F3CF2BF0F4CF2CF02B50B0
:1038D80021262C502222000E2322000E24221A50C8
:1038E8001502F3CF2BF0F4CF2CF02B5027262C50B9
:1038F8002822000E2922000E2A2219501602F3CF80
:103908002BF0F4CF2CF02B5027262C502822000E19
:103918002922000E2A221A501602F3CF2BF0F4CFD8
:103928002CF02B501C6E2C501D6E1E6A1F6A1EC078
:103938001FF01DC01EF01CC01DF01C6A1C5027265D
:103948001D5028221E5029221F502A2221C01CF057
:1039580022C01DF023C01EF024C01FF0190EBAEFBC
:103968001CF0D8901F321E321D321C32E82EB5EFE3
:103978001CF01C5027261D5028221E5029221F509B
:103988002A2223C024F022C023F021C022F0216A79
:10399800255026C01CF01D6A1C26000E1D22820E12
:1039A8001C242B6EFF0E1D202C6EF0EF1CF0D890FF
:1039B8002736283629362A3624AEE5EF1CF0E7EFFD
:1039C8001CF0E8EF1CF02780D890213622362336E9
:1039D80024362B06D8A02C0629AEF5EF1CF0F7EFFD
:1039E8001CF0DBEF1CF0000E256E24AEFEEF1CF081
:1039F80000EF1DF024EF1DF0FF0E21141C6EFF0ECA
:103A080022141D6EFF0E23141E6E7F0E24141F6ECB
:103A18001C501D101E101F10D8B415EF1DF017EF05
:103A28001DF01BEF1DF0010E256E24EF1DF027A0E1
:103A380020EF1DF022EF1DF024EF1DF017EF1DF011
:103A48002550D8B42AEF1DF02CEF1DF050EF1DF0D3
:103A5800010E2726000E282229222A222AA037EF23
:103A68001DF039EF1DF050EF1DF027C01CF028C0E5
:103A78001DF029C01EF02AC01FF01F341F321E324D
:103A88001D321C321CC027F01DC028F01EC029F0B2
:103A98001FC02AF02B4A2C2A2CBE5BEF1DF02C509D
:103AA80008E12B28D8A05BEF1DF05DEF1DF067EF54
:103AB8001DF0000E276E000E286E800E296E7F0EF8
:103AC8002A6E95EF1DF02CBE74EF1DF02C5006E108
:103AD8002B04D8B072EF1DF074EF1DF080EF1DF0CD
:103AE800000E276E000E286E000E296E000E2A6E3C
:103AF800000E206E95EF1DF02BC026F0FF0E271646
:103B0800FF0E28167F0E2916000E2A1626A08FEF04
:103B18001DF091EF1DF092EF1DF0298ED890263000
:103B28002A6E20502A1227C014F028C015F029C088
:103B380016F02AC017F012003050800B396E305042
:103B480030243B6E2FAEABEF1DF0ADEF1DF0AEEFA6
:103B58001DF03B803B50D8B4B4EF1DF0B6EF1DF01C
:103B6800CBEF1DF03B28D8A4BCEF1DF0BEEF1DF035
:103B7800C6EF1DF0000E2D6E000E2E6E000E2F6E7D
:103B8800000E306E2F8E000E306ED3EF1DF0000E3B
:103B98002D6E000E2E6E000E2F6E000E306E3450FD
:103BA800800B3A6E39503A18D8B4DDEF1DF0DFEFCC
:103BB8001DF0E0EF1DF0398C345034243A6E33AEEA
:103BC800E8EF1DF0EAEF1DF0EBEF1DF03A803A50F8
:103BD800D8B4F1EF1DF0F3EF1DF008EF1EF03A280E
:103BE800D8A4F9EF1DF0FBEF1DF003EF1EF0000E57
:103BF800316E000E326E000E336E000E346E338E50
:103C0800000E346E10EF1EF0000E316E000E326E94
:103C1800000E336E000E346E3B503A5CD8B017EF8E
:103C28001EF019EF1EF040EF1EF039AC1EEF1EF02B
:103C380020EF1EF022EF1EF0800E391A3BC03CF038
:103C48003AC03BF03CC03AF02DC03CF031C02DF0FA
:103C58003CC031F02EC03CF032C02EF03CC032F0F7
:103C68002FC03CF033C02FF03CC033F030C03CF0E4
:103C780034C030F03CC034F0000E3C6E3B503AC0CB
:103C880035F0366A355E000E365A36BE55EF1EF0F0
:103C9800365009E11A0E355CD8A055EF1EF057EFE3
:103CA8001EF08EEF1EF02D502E102F103010D8A4BD
:103CB80060EF1EF063EF1EF0010E64EF1EF0000EC1
:103CC8003C6E000E2D6E000E2E6E000E2F6E000E36
:103CD800306E3AC03BF097EF1EF03CA076EF1EF036
:103CE80078EF1EF07EEF1EF0D8903C3001093C6E54
:103CF80080EF1EF0D8903C322DA085EF1EF087EFA4
:103D08001EF088EF1EF03C8E303430322F322E32C7
:103D18002D323B2A3A503B5CD8A095EF1EF097EF26
:103D28001EF071EF1EF039BC9CEF1EF09EEF1EF0E6
:103D3800DEEF1EF03B50D8A4A4EF1EF0A6EF1EF055
:103D4800B0EF1EF0000E2D6E000E2E6E000E2F6EC0
:103D5800000E306EFFEF1FF031502D2632502E220C
:103D680033502F223450302230A0BDEF1EF0BFEF69
:103D78001EF06BEF1FF03CA0C4EF1EF0C6EF1EF064
:103D8800CCEF1EF0D8903C3001093C6ECEEF1EF00F
:103D9800D8903C322DA0D3EF1EF0D5EF1EF0D6EF11
:103DA8001EF03C8E303430322F322E322D323B2AE8
:103DB8006BEF1FF031502D5C32502E5833502F5876
:103DC8003050800A356E3450800A3558D8B0EFEF3D
:103DD8001EF0F1EF1EF01CEF1FF02D50315C356E18
:103DE8002E503258366E2F503358376E3050345864
:103DF800386EFF0E35242D6EFF0E36202E6EFF0E08
:103E080037202F6EFF0E3820306E800E391A3C6C2A
:103E18003C50D8A412EF1FF014EF1FF024EF1FF04E
:103E2800010E2D26000E2E222F22302224EF1FF005
:103E380031502D5E32502E5A33502F5A3450305A4A
:103E48002D502E102F103010D8A42DEF1FF02FEF6B
:103E58001FF064EF1FF03C50D8A435EF1FF037EF88
:103E68001FF064EF1FF0000E2D6E000E2E6E000E78
:103E78002F6E000E306EFFEF1FF0D8902D362E36C5
:103E88002F3630363CAE4BEF1FF04DEF1FF04EEFA4
:103E98001FF02D803CA053EF1FF055EF1FF059EF96
:103EA8001FF0D8803C365BEF1FF0D8903C363B5073
:103EB800D8B461EF1FF063EF1FF064EF1FF03B060B
:103EC8002FAE69EF1FF06BEF1FF041EF1FF0000EF0
:103ED8003A6E3CAE72EF1FF074EF1FF08CEF1FF0DC
:103EE8003CC035F07F0E3516D8B47DEF1FF07FEF5C
:103EF8001FF083EF1FF0010E3A6E8CEF1FF02DA01C
:103F080088EF1FF08AEF1FF08CEF1FF07FEF1FF094
:103F18003A50D8B492EF1FF094EF1FF0BFEF1FF0A4
:103F2800010E2D26000E2E222F22302230A09FEFC8
:103F38001FF0A1EF1FF0BFEF1FF02DC035F02EC00E
:103F480036F02FC037F030C038F0383438323732D6
:103F58003632353235C02DF036C02EF037C02FF04E
:103F680038C030F03B28D8B4BCEF1FF0BEEF1FF0CC
:103F7800BFEF1FF03B2A3B28D8B4C5EF1FF0C7EFAF
:103F88001FF0CFEF1FF03B50D8A4CDEF1FF0CFEFBD
:103F98001FF0E1EF1FF0000E2D6E000E2E6E000ECA
:103FA8002F6E000E306E3B50D8A4DDEF1FF0DFEF10
:103FB8001FF0E1EF1FF0000E396E3BA0E6EF1FF097
:103FC800E8EF1FF0EBEF1FF02F8EECEF1FF02F9EA6
:103FD800D8903B30306E39AEF4EF1FF0F6EF1FF09B
:103FE800F7EF1FF0308E2DC02DF02EC02EF02FC011
:083FF8002FF030C030F0120080
:020000040020DA
:08000000FFFFFFFFFFFFFFFF00
:020000040030CA
:0E000000FF281F3CFFBF85FF03C003E0034045
:00000001FF
